{
  "contractName": "Multisend",
  "abi": [
    {
      "constant": true,
      "inputs": [
        {
          "name": "",
          "type": "address"
        }
      ],
      "name": "whitelist",
      "outputs": [
        {
          "name": "",
          "type": "bool"
        }
      ],
      "payable": false,
      "stateMutability": "view",
      "type": "function"
    },
    {
      "constant": true,
      "inputs": [
        {
          "name": "",
          "type": "address"
        },
        {
          "name": "",
          "type": "address"
        }
      ],
      "name": "balances",
      "outputs": [
        {
          "name": "",
          "type": "uint256"
        }
      ],
      "payable": false,
      "stateMutability": "view",
      "type": "function"
    },
    {
      "inputs": [
        {
          "name": "initialFee",
          "type": "uint256"
        }
      ],
      "payable": false,
      "stateMutability": "nonpayable",
      "type": "constructor"
    },
    {
      "constant": false,
      "inputs": [
        {
          "name": "tokenDepositAddress",
          "type": "address[]"
        },
        {
          "name": "tokenDepositAmount",
          "type": "uint256[]"
        }
      ],
      "name": "deposit",
      "outputs": [],
      "payable": true,
      "stateMutability": "payable",
      "type": "function"
    },
    {
      "constant": false,
      "inputs": [
        {
          "name": "tokens",
          "type": "address[]"
        },
        {
          "name": "recipients",
          "type": "address[]"
        },
        {
          "name": "amounts",
          "type": "uint256[]"
        }
      ],
      "name": "sendPayment",
      "outputs": [
        {
          "name": "",
          "type": "bool"
        }
      ],
      "payable": true,
      "stateMutability": "payable",
      "type": "function"
    },
    {
      "constant": false,
      "inputs": [
        {
          "name": "tokenDepositAddress",
          "type": "address[]"
        },
        {
          "name": "tokenDepositAmount",
          "type": "uint256[]"
        },
        {
          "name": "tokens",
          "type": "address[]"
        },
        {
          "name": "recipients",
          "type": "address[]"
        },
        {
          "name": "amounts",
          "type": "uint256[]"
        }
      ],
      "name": "depositAndSendPayment",
      "outputs": [
        {
          "name": "",
          "type": "bool"
        }
      ],
      "payable": true,
      "stateMutability": "payable",
      "type": "function"
    },
    {
      "constant": false,
      "inputs": [
        {
          "name": "tokenAddresses",
          "type": "address[]"
        }
      ],
      "name": "withdrawTokens",
      "outputs": [],
      "payable": false,
      "stateMutability": "nonpayable",
      "type": "function"
    },
    {
      "constant": false,
      "inputs": [],
      "name": "withdrawEther",
      "outputs": [],
      "payable": false,
      "stateMutability": "nonpayable",
      "type": "function"
    },
    {
      "constant": true,
      "inputs": [
        {
          "name": "owner",
          "type": "address"
        },
        {
          "name": "token",
          "type": "address"
        }
      ],
      "name": "getBalance",
      "outputs": [
        {
          "name": "",
          "type": "uint256"
        }
      ],
      "payable": false,
      "stateMutability": "view",
      "type": "function"
    },
    {
      "constant": true,
      "inputs": [],
      "name": "owner",
      "outputs": [
        {
          "name": "",
          "type": "address"
        }
      ],
      "payable": false,
      "stateMutability": "view",
      "type": "function"
    },
    {
      "constant": false,
      "inputs": [
        {
          "name": "tokenAddresses",
          "type": "address[]"
        }
      ],
      "name": "ownerWithdrawTokens",
      "outputs": [],
      "payable": false,
      "stateMutability": "nonpayable",
      "type": "function"
    },
    {
      "constant": false,
      "inputs": [],
      "name": "ownerWithdrawEther",
      "outputs": [],
      "payable": false,
      "stateMutability": "nonpayable",
      "type": "function"
    },
    {
      "constant": false,
      "inputs": [
        {
          "name": "contractAddress",
          "type": "address"
        }
      ],
      "name": "whitelistAddress",
      "outputs": [],
      "payable": false,
      "stateMutability": "nonpayable",
      "type": "function"
    },
    {
      "constant": false,
      "inputs": [
        {
          "name": "newOwner",
          "type": "address"
        }
      ],
      "name": "transferOwnership",
      "outputs": [],
      "payable": false,
      "stateMutability": "nonpayable",
      "type": "function"
    }
  ],
  "bytecode": "0x608060405234801561001057600080fd5b506040516020806118418339810180604052602081101561003057600080fd5b505160008054600160a060020a031916331790556002556117eb806100566000396000f3fe6080604052600436106100ab5763ffffffff60e060020a6000350416630b142a5481146100b0578063415665851461012f5780635895e44a146101625780635ecb16cd146101775780637362377b146101f45780638da5cb5b146102095780639b19251a1461023a578063a7b740b514610281578063c23f001f14610439578063cdf7f4ba14610486578063d4fac45d14610631578063efc908a11461066c578063f2fde38b14610793575b600080fd5b3480156100bc57600080fd5b5061012d600480360360208110156100d357600080fd5b8101906020810181356401000000008111156100ee57600080fd5b82018360208201111561010057600080fd5b8035906020019184602083028401116401000000008311171561012257600080fd5b5090925090506107c6565b005b34801561013b57600080fd5b5061012d6004803603602081101561015257600080fd5b5035600160a060020a03166109b4565b34801561016e57600080fd5b5061012d610a3a565b34801561018357600080fd5b5061012d6004803603602081101561019a57600080fd5b8101906020810181356401000000008111156101b557600080fd5b8201836020820111156101c757600080fd5b803590602001918460208302840111640100000000831117156101e957600080fd5b509092509050610af6565b34801561020057600080fd5b5061012d610c76565b34801561021557600080fd5b5061021e610cc2565b60408051600160a060020a039092168252519081900360200190f35b34801561024657600080fd5b5061026d6004803603602081101561025d57600080fd5b5035600160a060020a0316610cd1565b604080519115158252519081900360200190f35b61026d600480360360a081101561029757600080fd5b8101906020810181356401000000008111156102b257600080fd5b8201836020820111156102c457600080fd5b803590602001918460208302840111640100000000831117156102e657600080fd5b91939092909160208101903564010000000081111561030457600080fd5b82018360208201111561031657600080fd5b8035906020019184602083028401116401000000008311171561033857600080fd5b91939092909160208101903564010000000081111561035657600080fd5b82018360208201111561036857600080fd5b8035906020019184602083028401116401000000008311171561038a57600080fd5b9193909290916020810190356401000000008111156103a857600080fd5b8201836020820111156103ba57600080fd5b803590602001918460208302840111640100000000831117156103dc57600080fd5b9193909290916020810190356401000000008111156103fa57600080fd5b82018360208201111561040c57600080fd5b8035906020019184602083028401116401000000008311171561042e57600080fd5b509092509050610ce6565b34801561044557600080fd5b506104746004803603604081101561045c57600080fd5b50600160a060020a0381358116916020013516610e02565b60408051918252519081900360200190f35b61026d6004803603606081101561049c57600080fd5b8101906020810181356401000000008111156104b757600080fd5b8201836020820111156104c957600080fd5b803590602001918460208302840111640100000000831117156104eb57600080fd5b919080806020026020016040519081016040528093929190818152602001838360200280828437600092019190915250929594936020810193503591505064010000000081111561053b57600080fd5b82018360208201111561054d57600080fd5b8035906020019184602083028401116401000000008311171561056f57600080fd5b91908080602002602001604051908101604052809392919081815260200183836020028082843760009201919091525092959493602081019350359150506401000000008111156105bf57600080fd5b8201836020820111156105d157600080fd5b803590602001918460208302840111640100000000831117156105f357600080fd5b919080806020026020016040519081016040528093929190818152602001838360200280828437600092019190915250929550610e1f945050505050565b34801561063d57600080fd5b506104746004803603604081101561065457600080fd5b50600160a060020a03813581169160200135166110fb565b61012d6004803603604081101561068257600080fd5b81019060208101813564010000000081111561069d57600080fd5b8201836020820111156106af57600080fd5b803590602001918460208302840111640100000000831117156106d157600080fd5b919080806020026020016040519081016040528093929190818152602001838360200280828437600092019190915250929594936020810193503591505064010000000081111561072157600080fd5b82018360208201111561073357600080fd5b8035906020019184602083028401116401000000008311171561075557600080fd5b919080806020026020016040519081016040528093929190818152602001838360200280828437600092019190915250929550611128945050505050565b34801561079f57600080fd5b5061012d600480360360208110156107b657600080fd5b5035600160a060020a03166114bc565b600054600160a060020a03163314610825576040805160e560020a62461bcd02815260206004820152602360248201526000805160206117a0833981519152604482015260ea60020a621858dd02606482015290519081900360840190fd5b60005b818110156109af573060009081526003602052604081208185858581811061084c57fe5b90506020020135600160a060020a0316600160a060020a0316600160a060020a0316815260200190815260200160002054905060006003600030600160a060020a0316600160a060020a03168152602001908152602001600020600086868681811015156108b657fe5b90506020020135600160a060020a0316600160a060020a0316600160a060020a0316815260200190815260200160002081905550600084848481811015156108fa57fe5b60008054604080517fa9059cbb000000000000000000000000000000000000000000000000000000008152600160a060020a039283166004820152602481018990529051602094850296909601359091169550859463a9059cbb94506044808301949391928390030190829087803b15801561097557600080fd5b505af1158015610989573d6000803e3d6000fd5b505050506040513d602081101561099f57600080fd5b5050600190920191506108289050565b505050565b600054600160a060020a03163314610a13576040805160e560020a62461bcd02815260206004820152602360248201526000805160206117a0833981519152604482015260ea60020a621858dd02606482015290519081900360840190fd5b600160a060020a03166000908152600160208190526040909120805460ff19169091179055565b600054600160a060020a03163314610a99576040805160e560020a62461bcd02815260206004820152602360248201526000805160206117a0833981519152604482015260ea60020a621858dd02606482015290519081900360840190fd5b306000908152600360209081526040808320838052909152808220805490839055825491519092600160a060020a03909216916108fc841502918491818181858888f19350505050158015610af2573d6000803e3d6000fd5b5050565b60005b818110156109af5733600090815260036020526040812081858585818110610b1d57fe5b90506020020135600160a060020a0316600160a060020a0316600160a060020a0316815260200190815260200160002054905060006003600033600160a060020a0316600160a060020a0316815260200190815260200160002060008686868181101515610b8757fe5b90506020020135600160a060020a0316600160a060020a0316600160a060020a031681526020019081526020016000208190555060008484848181101515610bcb57fe5b604080517fa9059cbb00000000000000000000000000000000000000000000000000000000815233600482015260248101879052905160209283029490940135600160a060020a03169450849363a9059cbb9350604480830193928290030181600087803b158015610c3c57600080fd5b505af1158015610c50573d6000803e3d6000fd5b505050506040513d6020811015610c6657600080fd5b505060019092019150610af99050565b33600081815260036020908152604080832083805290915280822080549083905590519092916108fc841502918491818181858888f19350505050158015610af2573d6000803e3d6000fd5b600054600160a060020a031690565b60016020526000908152604090205460ff1681565b6000610d558b8b8080602002602001604051908101604052809392919081815260200183836020028082843760009201919091525050604080516020808f0282810182019093528e82529093508e92508d91829185019084908082843760009201919091525061112892505050565b610df387878080602002602001604051908101604052809392919081815260200183836020028082843760009201919091525050604080516020808b0282810182019093528a82529093508a92508991829185019084908082843760009201919091525050604080516020808a02828101820190935289825290935089925088918291850190849080828437600092019190915250610e1f92505050565b509a9950505050505050505050565b600360209081526000928352604080842090915290825290205481565b8151835160009114610e3057600080fd5b8151845114610e3e57600080fd5b6000805b84518110156110f2578551600090879083908110610e5c57fe5b60209081029091010151600160a060020a031614610ffd57610ee08482815181101515610e8557fe5b60209081029091018101513360009081526003909252604082208951919290918a9086908110610eb157fe5b6020908102909101810151600160a060020a03168252810191909152604001600020549063ffffffff6115d016565b3360009081526003602052604081208851909190899085908110610f0057fe5b6020908102909101810151600160a060020a03168252810191909152604001600020558551869082908110610f3157fe5b90602001906020020151600160a060020a031663a9059cbb8683815181101515610f5757fe5b906020019060200201518684815181101515610f6f57fe5b906020019060200201516040518363ffffffff1660e060020a0281526004018083600160a060020a0316600160a060020a0316815260200182815260200192505050602060405180830381600087803b158015610fcb57600080fd5b505af1158015610fdf573d6000803e3d6000fd5b505050506040513d6020811015610ff557600080fd5b506110ea9050565b611025848281518110151561100e57fe5b60209081029091010151839063ffffffff61163016565b9150611069848281518110151561103857fe5b602090810290910181015133600090815260038352604080822082805290935291909120549063ffffffff6115d016565b336000908152600360209081526040808320838052909152902055845185908290811061109257fe5b90602001906020020151600160a060020a03166108fc85838151811015156110b657fe5b602090810290910101516040518115909202916000818181858888f193505050501580156110e8573d6000803e3d6000fd5b505b600101610e42565b50509392505050565b600160a060020a038083166000908152600360209081526040808320938516835292905220545b92915050565b805182511461113657600080fd5b34156111fb57600254600090611164906111583461271063ffffffff61169416565b9063ffffffff61170316565b90506111a0611179348363ffffffff6115d016565b3360009081526003602090815260408083208380529091529020549063ffffffff61163016565b336000908152600360208181526040808420848052825280842094909455308352908152828220828052905220546111de908263ffffffff61163016565b306000908152600360209081526040808320838052909152902055505b60005b82518110156109af5760016000848381518110151561121957fe5b6020908102909101810151600160a060020a031682528101919091526040016000205460ff161515600114611298576040805160e560020a62461bcd02815260206004820152601560248201527f746f6b656e206e6f742077686974656c69737465640000000000000000000000604482015290519081900360640190fd5b60006112ca60025461115861271086868151811015156112b457fe5b602090810290910101519063ffffffff61169416565b905083828151811015156112da57fe5b90602001906020020151600160a060020a03166323b872dd3330868681518110151561130257fe5b60209081029091018101516040805160e060020a63ffffffff8816028152600160a060020a03958616600482015293909416602484015260448301529151606480830193928290030181600087803b15801561135d57600080fd5b505af1158015611371573d6000803e3d6000fd5b505050506040513d602081101561138757600080fd5b50508251611406906113b79083908690869081106113a157fe5b602090810290910101519063ffffffff6115d016565b33600090815260036020526040812087519091908890879081106113d757fe5b6020908102909101810151600160a060020a03168252810191909152604001600020549063ffffffff61163016565b336000908152600360205260408120865190919087908690811061142657fe5b6020908102909101810151600160a060020a03168252818101929092526040908101600090812093909355308352600390915281208551611470928492918890879081106113d757fe5b306000908152600360205260408120865190919087908690811061149057fe5b6020908102909101810151600160a060020a0316825281019190915260400160002055506001016111fe565b600054600160a060020a0316331461151b576040805160e560020a62461bcd02815260206004820152602360248201526000805160206117a0833981519152604482015260ea60020a621858dd02606482015290519081900360840190fd5b600160a060020a03811615156115a1576040805160e560020a62461bcd02815260206004820152602c60248201527f4f776e65722061646472657373206d6179206e6f742062652073657420746f2060448201527f7a65726f20616464726573730000000000000000000000000000000000000000606482015290519081900360840190fd5b6000805473ffffffffffffffffffffffffffffffffffffffff1916600160a060020a0392909216919091179055565b60008282111561162a576040805160e560020a62461bcd02815260206004820152601e60248201527f536166654d6174683a207375627472616374696f6e206f766572666c6f770000604482015290519081900360640190fd5b50900390565b60008282018381101561168d576040805160e560020a62461bcd02815260206004820152601b60248201527f536166654d6174683a206164646974696f6e206f766572666c6f770000000000604482015290519081900360640190fd5b9392505050565b60008082116116ed576040805160e560020a62461bcd02815260206004820152601a60248201527f536166654d6174683a206469766973696f6e206279207a65726f000000000000604482015290519081900360640190fd5b600082848115156116fa57fe5b04949350505050565b600082151561171457506000611122565b82820282848281151561172357fe5b041461168d576040805160e560020a62461bcd02815260206004820152602160248201527f536166654d6174683a206d756c7469706c69636174696f6e206f766572666c6f60448201527f7700000000000000000000000000000000000000000000000000000000000000606482015290519081900360840190fdfe53656e646572206973206e6f74206f776e6572206f662074686520636f6e7472a165627a7a72305820132d4fbab35981ca3d61afd7e70713b975783ab38ff8a7e0ecb3f0897d6632c40029",
  "source": "pragma solidity ^0.5.0;\n\nimport \"./IERC20.sol\";\nimport \"./math/SafeMath.sol\";\n\n/**\n* @title Multisend contract\n* @dev Provides ability to send multiple ERC20 tokens and ether within one transaction\n**/\ncontract Multisend {\n  using SafeMath for uint256;\n\n  address payable private _owner; // owner of the contract\n  mapping(address => bool) public whitelist; //whitelisted contract address to transfer to\n  uint private _fee; // amount in basis points to take from each deposit\n  mapping(address => mapping(address => uint256)) public balances; // deposited token/ether balances\n\n\n  /**\n  * @param initialFee amount of fees taken per transaction in basis points\n  **/\n  constructor(uint256 initialFee) public {\n    _owner = msg.sender;\n    _fee = initialFee;\n  }\n\n  /**\n  * @dev Deposit token into this contract to use for sending\n  * @param tokenDepositAddress token contract addresses to deposit tokens from\n  * @param tokenDepositAmount amount of tokens to deposit\n  * @dev for ether transactions use address(0) as token contract address\n  **/\n  function deposit(address[] memory tokenDepositAddress, uint256[] memory tokenDepositAmount) public payable {\n    require(tokenDepositAddress.length == tokenDepositAmount.length);\n    // if any ether was sent\n    if(msg.value != 0) {\n      uint256 etherFee = msg.value.div(10000).mul(_fee); //calculate fee\n      balances[msg.sender][address(0)] = balances[msg.sender][address(0)].add(msg.value.sub(etherFee));\n      balances[address(this)][address(0)] = balances[address(this)][address(0)].add(etherFee);\n    }\n    for (uint i=0;i<tokenDepositAddress.length;i++) {\n      require(whitelist[tokenDepositAddress[i]] == true, \"token not whitelisted\");\n      uint256 tokenFee = tokenDepositAmount[i].div(10000).mul(_fee);\n      IERC20(tokenDepositAddress[i]).transferFrom(msg.sender, address(this), tokenDepositAmount[i]);\n      balances[msg.sender][tokenDepositAddress[i]] = balances[msg.sender][tokenDepositAddress[i]].add(tokenDepositAmount[i].sub(tokenFee));\n      balances[address(this)][tokenDepositAddress[i]] = balances[address(this)][tokenDepositAddress[i]].add(tokenFee);\n    }\n  }\n\n  /**\n  * Send payment from the funds initially depositted\n  * @param tokens token contract address to send payment\n  * @param recipients addresses to send tokens to\n  * @param amounts token amount being sent\n  * @dev for ether payments use address(0)\n  **/\n  function sendPayment(address[] memory tokens, address payable[] memory recipients, uint256[] memory amounts) public payable returns (bool) {\n    require(tokens.length == recipients.length);\n    require(tokens.length == amounts.length);\n    uint256 total_ether_amount = 0;\n    for (uint i=0; i < recipients.length; i++) {\n      if(tokens[i] != address(0)) {\n        balances[msg.sender][tokens[i]] = balances[msg.sender][tokens[i]].sub(amounts[i]);\n        IERC20(tokens[i]).transfer(recipients[i], amounts[i]);\n      }\n      else {\n        total_ether_amount = total_ether_amount.add(amounts[i]);\n        balances[msg.sender][address(0)] = balances[msg.sender][address(0)].sub(amounts[i]);\n        recipients[i].transfer(amounts[i]);\n      }\n    }\n  }\n\n  /**\n  * @dev calls deposit and send methods in one transaction\n  **/\n  function depositAndSendPayment(address[] calldata tokenDepositAddress, uint256[] calldata tokenDepositAmount, address[] calldata tokens, address payable[] calldata recipients, uint256[] calldata amounts) external payable returns (bool) {\n      deposit(tokenDepositAddress, tokenDepositAmount);\n      sendPayment(tokens, recipients, amounts);\n  }\n\n  /**\n  * @dev Withdraw method to return tokens to original owner\n  * @param tokenAddresses token contract address to withdraw from\n  **/\n  function withdrawTokens(address payable[] calldata tokenAddresses) external {\n    for(uint i=0; i<tokenAddresses.length;i++) {\n      uint balance = balances[msg.sender][tokenAddresses[i]];\n      balances[msg.sender][tokenAddresses[i]] = 0;\n      IERC20 ERC20 = IERC20(tokenAddresses[i]);\n      ERC20.transfer(msg.sender, balance);\n    }\n  }\n\n  // @dev Withdraw method to return ether to original owner\n  function withdrawEther() external {\n    uint balance = balances[msg.sender][address(0)];\n    balances[msg.sender][address(0)] = 0;\n    msg.sender.transfer(balance);\n  }\n\n  /*** CONSTANT METHODS **/\n\n  /**\n  * @param owner address to query balance of\n  * @param token contract address to query\n  * @return a uint256 balance of the given users token amount\n  **/\n  function getBalance(address owner, address token) external view returns (uint256) {\n    return balances[owner][token];\n  }\n\n  /**\n  * @dev returns the owner of the contract\n  * @return address of this contracts owner\n  **/\n  function owner() external view returns (address) {\n    return _owner;\n  }\n\n  /*** OWNER METHODS **/\n\n  /**\n  * @dev function that returns the token fees collected by the contract to the owner\n  * @param tokenAddresses token contract addresses to withdraw from\n  **/\n  function ownerWithdrawTokens(address payable[] calldata tokenAddresses) external onlyOwner {\n    for(uint i=0; i<tokenAddresses.length;i++) {\n      uint balance = balances[address(this)][tokenAddresses[i]];\n      balances[address(this)][tokenAddresses[i]] = 0;\n      IERC20 ERC20 = IERC20(tokenAddresses[i]);\n      ERC20.transfer(_owner, balance);\n    }\n  }\n\n  // @dev function that returns the ether fees collected by the contract to the owner\n  function ownerWithdrawEther() external onlyOwner {\n    uint balance = balances[address(this)][address(0)];\n    balances[address(this)][address(0)] = 0;\n    _owner.transfer(balance);\n  }\n\n  /**\n  * @dev whitelist a token address\n  * @param contractAddress the address to be whitelisted\n  */\n  function whitelistAddress(address contractAddress) external onlyOwner {\n    whitelist[contractAddress] = true;\n  }\n\n  /**\n  * @dev method to transfer ownership to a new address\n  * @param newOwner address of the new owner\n  **/\n  function transferOwnership(address payable newOwner) external onlyOwner {\n    require(newOwner != address(0), \"Owner address may not be set to zero address\");\n    _owner = newOwner;\n  }\n\n  modifier onlyOwner {\n    require(msg.sender == _owner, \"Sender is not owner of the contract\");\n    _;\n  }\n}\n",
  "sourcePath": "/home/deon/whisp/contract/contracts/Multisend.sol",
  "compiler": {
    "name": "solc",
    "version": "0.5.0+commit.1d4f565a.Emscripten.clang"
  },
  "schemaVersion": "3.0.9",
  "updatedAt": "2019-06-19T18:25:59.972Z",
  "devdoc": {
    "details": "Provides ability to send multiple ERC20 tokens and ether within one transaction*",
    "methods": {
      "constructor": {
        "params": {
          "initialFee": "amount of fees taken per transaction in basis points*"
        }
      },
      "deposit(address[],uint256[])": {
        "details": "Deposit token into this contract to use for sendingfor ether transactions use address(0) as token contract address*",
        "params": {
          "tokenDepositAddress": "token contract addresses to deposit tokens from",
          "tokenDepositAmount": "amount of tokens to deposit"
        }
      },
      "depositAndSendPayment(address[],uint256[],address[],address[],uint256[])": {
        "details": "calls deposit and send methods in one transaction*"
      },
      "getBalance(address,address)": {
        "params": {
          "owner": "address to query balance of",
          "token": "contract address to query"
        },
        "return": "a uint256 balance of the given users token amount*"
      },
      "owner()": {
        "details": "returns the owner of the contract",
        "return": "address of this contracts owner*"
      },
      "ownerWithdrawTokens(address[])": {
        "details": "function that returns the token fees collected by the contract to the owner",
        "params": {
          "tokenAddresses": "token contract addresses to withdraw from*"
        }
      },
      "sendPayment(address[],address[],uint256[])": {
        "details": "for ether payments use address(0)*",
        "params": {
          "amounts": "token amount being sent",
          "recipients": "addresses to send tokens to",
          "tokens": "token contract address to send payment"
        }
      },
      "transferOwnership(address)": {
        "details": "method to transfer ownership to a new address",
        "params": {
          "newOwner": "address of the new owner*"
        }
      },
      "withdrawTokens(address[])": {
        "details": "Withdraw method to return tokens to original owner",
        "params": {
          "tokenAddresses": "token contract address to withdraw from*"
        }
      },
      "whitelistAddress(address)": {
        "details": "whitelist a token address",
        "params": {
          "contractAddress": "the address to be whitelisted"
        }
      }
    },
    "title": "Multisend contract"
  },
  "userdoc": {
    "methods": {
      "sendPayment(address[],address[],uint256[])": {
        "notice": "Send payment from the funds initially depositted"
      }
    }
  }
}